000SATELITAL BRASIL COMERCIO LTDA     EMPRESA BRASILEIRA DE CORREIOS E TE2707181035NOT270710350                                                                                                                                                 
310NOTFI270710350                                                                                                                                                                                                                               
31101336140000360206156360111   AVENIDA ARUANA 884 S10                  BARUERI                            06460010 SP       27072018SATELITAL BRASIL COMERCIO LTDA                                                                             
318000000000000000000000000000000               000000000000100                                                                                                                                                                                 
312ELAINE ROCHA DOS SANTOS                 02489484745                  R CURUCA 0 L22 Q14                      JARDIM OLAVO BILAC  DUQUE DE CAXIAS                    25036300          RJ                                              2      
313                      112C001019156662707201801990000013337R4              0000100000000000000000000000000000SN                                     N                                                            I                        N  
